:020000040800F2
:10000000B09600205D020008113C00083B2B000860
:100010007D3B000885100008C54C0008000000006A
:100020000000000000000000000000009D0100082A
:10003000D513000800000000F9010008E94300089A
:1000400077020008770200087702000877020008AC
:10005000770200087702000877020008770200089C
:10006000770200087702000877020008770200088C
:10007000770200087702000877020008770200087C
:10008000770200087702000877020008770200086C
:10009000770200087702000877020008770200085C
:1000A00077020008A54400087702000877020008DC
:1000B000770200087702000877020008770200083C
:1000C000770200087702000877020008770200082C
:1000D000770200086D4A0008794A0008854A00083E
:1000E000770200087702000877020008770200080C
:1000F00077020008770200087702000877020008FC
:1001000077020008770200087702000877020008EB
:100110008D47000877020008770200087702000880
:1001200077020008770200087702000877020008CB
:1001300077020008770200087702000877020008BB
:1001400077020008770200087702000877020008AB
:10015000770200087702000877020008E14B0008E8
:10016000770200087702000877020008770200088B
:1001700077020008770200087702000800000000FC
:100180007702000877020008DFF80CD000F042FD8B
:100190000048004765560008B09600202C4B1968AF
:1001A0000868B0E8F04F80F30988BFF36F8F4FF015
:1001B000000080F3118870470000000008480068C4
:1001C000006880F308884FF0000080F3148862B65E
:1001D00061B6BFF34F8FBFF36F8F00DF00BF00BF6B
:1001E00008ED00E0DFF80C00016841F470010160E7
:1001F000704700BF88ED00E0EFF30980BFF36F8F19
:10020000134B1A681EF0100F08BF20ED108A20E96A
:10021000F04F106009B44FF0500080F31188BFF325
:100220004F8FBFF36F8F06F0E3FC4FF0000080F3B9
:10023000118809BC19680868B0E8F04F1EF0100F6B
:1002400008BFB0EC108A80F30988BFF36F8F704746
:1002500064000020EFF305807047000006488047E7
:1002600006480047FEE7FEE7FEE7FEE7FEE7FEE79B
:10027000FEE7FEE7FEE7FEE7954400088901000877
:100280002DE9F05F0546002092469B4688460646CB
:10029000814640241BE0284641464746224600F05E
:1002A00090FB53465A46C01A914110D31146184646
:1002B000224600F077FB2D1A67EB01084F462246D5
:1002C0000120002100F06EFB17EB00094E41201EBB
:1002D000A4F10104DFDC484631462A464346BDE826
:1002E000F09F2DE9F0410024061B254671F1000620
:1002F00005DA01240027D0EB070067EB0101161E89
:1003000073F1000605DA0027D2EB0702012567EB3F
:100310000303FFF7B5FF86460E4617469C46AC42E0
:1003200004D00025D0EB050E65EB010624B10020BA
:10033000D2EB000760EB030C704631463A46634649
:10034000BDE8F08140EA01039B0703D009E008C93A
:10035000121F08C0042AFAD203E011F8013B00F88A
:10036000013B521EF9D27047D2B201E000F8012BD6
:10037000491EFBD270470022F6E710B513460A4625
:1003800004461946FFF7F0FF204610BD421C10F846
:10039000011B0029FBD1801A704700000FB400B583
:1003A0008DB010A909900B9000914FF0FF300A908A
:1003B00000200C9005480690054807906A4609A859
:1003C0000F9900F035FB0DB05DF814FB4D0A0008E5
:1003D0006B0A00082DE9FF5F1D464FF0FF3BD5E992
:1003E000014691465F464FF00008A9697F1C0198BD
:1003F0008847296A824688470028F6D1BAF1FF3F2C
:100400000CD024F4C064002E19DD600614D5BAF1B6
:100410002B0F09D0BAF12D0F0ED103E0584604B0CE
:10042000BDE8F09F44F48064A9697F1C0198884767
:10043000761E8246002E02DDBAF1300F03D0B9F1EC
:10044000000F26D032E0A969761E44F400747F1CA8
:10045000019888478246002E05DDBAF1780F06D054
:10046000BAF1580F03D0B9F1000F10D01EE0B9F166
:10047000000F02D0B9F1100F18D1A969761E24F42B
:1004800000747F1C019888478246102002E00820F3
:1004900000E00A20814609E008FB0908A969761EE8
:1004A00044F400747F1C019888478246002E05DDC5
:1004B0004946504600F0A7FA0028EDDAE9690198AC
:1004C0008847A00502D46FF00100A8E7E00725D116
:1004D000600613D5600502D5C8F1000000E0404673
:1004E00029680A1D2A600968220501D5087015E0EF
:1004F000220701D5088011E008600FE02868011D7F
:1005000029600068210502D580F8008006E02107F7
:1005100002D5A0F8008001E0C0F8008038467EE7F0
:100520002DE9FE4F804681EA0300C00F0C46009083
:1005300021F0004123F00045B8EB0200A94105D2AB
:100540004046214690461C460B46024623F000409A
:10055000104347D0270DC7F30A00C3F30A51029096
:10056000401A019040286BDAC3F3130040F4801B5B
:100570000098924620B10023D2EB030A63EB0B0BE9
:1005800001985946C0F14002504600F00BFA064669
:100590000D4650465946019A00F023FA10EB080028
:1005A0006141002487EA115284EAE7731A4340D07C
:1005B000009A62B3019A012A4FEA075215DC001B28
:1005C00061EB02014FF0004202EA0752CDE900421E
:1005D000001C41F5801132462B4600F09DFA03B015
:1005E000BDE8F08F40462146F9E7001B61EB0201B0
:1005F000001C41F5801300185B412018A2F500177C
:1006000047EB030140EAD570B6196D4111E06D0862
:100610004FEA360645EAC0754FEA0752001B61EB08
:100620000201001C41F5801149084FEA3000001911
:10063000514132462B4603B0BDE8F04F00F05DBAA1
:100640000098012240000023D0EB020263EBE0732C
:10065000009821464FEAE074B8EB000061EB04011A
:10066000E9E783F000435BE781F0004158E72DE9BB
:10067000FE4F81EA030404F0004421F0004100949D
:100680004FF0000B23F0004350EA01045ED052EA21
:1006900003045BD0C3F30A54C1F30A552C44A4F2FB
:1006A000F3340194A0FB0254C1F3130141F480110F
:1006B000C3F3130343F4801301FB024400FB034E16
:1006C000840A970A44EA815447EA8357A4FB0768DF
:1006D00002958D0A05FB07854FEA932C04FB0C5409
:1006E0002705029D4FEA065847EA1637B5EB08057D
:1006F0006EEB070C870E920E47EA811742EA8312CF
:10070000A7FB0201B6EB0B0164EB00042B0D43EADF
:100710000C335E1844EB1C50DA465146E7FB0201ED
:10072000C5F313044FEA0B3343EA14534FEA043280
:10073000019C43EA0603A4F10C040294009CCDE959
:1007400000B400F0E9F903B0BDE8F08F00200146E5
:10075000F9E72DE9F04D81EA030404F0004B21F0A4
:10076000004514464FF0000A23F0004150EA05020C
:1007700020D054EA01021DD0C5F30A570246C5F342
:100780001303C1F31300C1F30A5640F4801543F478
:100790008013A7EB0608101BD64608F2FD3873EB52
:1007A000050002D308F1010801E092185B41B8F19D
:1007B000000F03DA00200146BDE8F08D00204FF461
:1007C0008011064684460EE0171B73EB050705D320
:1007D000121B63EB050306434CEA010C49084FEA80
:1007E000300092185B4150EA0107EDD152EA030054
:1007F00012D082EA040083EA0501084305D0101BE9
:10080000AB4106D20122002306E000224FF0004354
:1008100002E06FF0010253101AEB06004CEB085196
:1008200010EB0A0041EB0B01BDE8F04D00F065B99B
:10083000F0B4CA17CB0F50405140C61841F1000523
:100840004FEAC372314628004FF0960303D0B62317
:10085000F0BC00F024B930460021F9E730B404467A
:1008600096230800214604D0B62330BC002200F0B5
:1008700016B920460021F8E70EB540F23341029147
:100880000021CDE900110A460B4600F045F903B0FE
:1008900000BD0EB540F2334202920022CDE90022A3
:1008A000134600F039F903B000BD70B5C1F30A5228
:1008B00001F000450024C1F3130140F2FF3341F47D
:1008C00080119A4201DA002070BD40F233439A420F
:1008D000A2F2334203DC524200F073F800E0904091
:1008E0002C43F1D0404270BDC1F30A5210B5C1F3A0
:1008F000130140F2FF3341F480119A4201DA0020E3
:1009000010BD40F233439A42A2F2334203DC52421A
:1009100000F057F810BD904010BD00F0004230F0DC
:1009200000400AD0C10D01F56071C0F3160042EA23
:100930000151C2084007114370470020014670472B
:1009400001F0004330B421F0004150EA010206D02A
:100950000A0DA2F56072C1F31301002A02DC30BC5B
:1009600000207047440F44EAC104C100E01830BCC5
:1009700000EBC25000F08AB830B50B4601460020AB
:100980002022012409E021FA02F59D4205D303FA51
:1009900002F5491B04FA02F52844151EA2F10102D2
:1009A000F1DC30BD202A04DB203A00FA02F10020FD
:1009B00070479140C2F1200320FA03F3194390409D
:1009C0007047202A04DB203A21FA02F00021704708
:1009D00021FA02F3D040C2F12002914008431946A7
:1009E0007047202A06DBCB17203A41FA02F043EA8F
:1009F000E07306E041FA02F3D040C2F120029140D8
:100A00000843194670473A2800D2303820F02002B7
:100A1000412A01D3A2F13700884201D34FF0FF30C1
:100A2000704700000268114413780160184670474F
:100A3000D1600449516104491162002111611146DC
:100A400000F000B9250A0008390C0008426842B1DC
:100A5000016811F8013B23B1521EC0E9001218468B
:100A600070470121C160881E704742685AB1C3684F
:100A7000016843B983688B4205D0491E521CC0E906
:100A80000012002070474FF0FF3070470029A8BFC8
:100A90007047401C490008BF20F00100704710B4A7
:100AA000B0FA80FC00FA0CF050EA010404BF10BC5C
:100AB000704749B1CCF1200421FA04F411FA0CF189
:100AC00018BF012121430843A3EB0C01CB1D4FEAC2
:100AD00000614FEA102042BF002010BC704700EBBD
:100AE000C35010440029A4BF10BC7047401C4900EB
:100AF00008BF20F0010010BC704710B5141E73F140
:100B0000000408DA401C41F1000192185B411A43CD
:100B100001D120F0010010BD2DE9F04D92469B4619
:100B200011B1B1FA81F202E0B0FA80F220329046BF
:100B3000FFF738FF04460F4640EA0A0041EA0B017E
:100B400053465A46084313D0114653EA010019D0C0
:100B5000C8F140025046FFF734FF05460E465046A6
:100B600059464246FFF71EFF084305D0012004E026
:100B700020463946BDE8F08D0020054346EAE07680
:100B80002C4337430A986305E40AA0EB08000022CF
:100B9000FD0A44EA47540A3002D500200146E9E73D
:100BA000010510196941DDE9084500196941BDE8F1
:100BB000F04DA2E7C1F30A52C1F3130140F2FF3333
:100BC00041F480119A4202DA00200146704740F257
:100BD00033439A42A2F2334202DC5242FFF7F1BEA3
:100BE000FFF7E0BE30B5041E71F1000404DB4FF0E6
:100BF0000044404264EB0101141E73F1000405DB64
:100C00001C464FF00043524263EB0403994208BF75
:100C1000904230BD064C074D06E0E06840F001030D
:100C200094E8070098471034AC42F6D3FFF7B0FAC7
:100C30000C7F00082C7F0008C0B24FF4F05100F088
:100C400097B900002DE9F34F8BB04FF0000801F188
:100C50000C000C464FF0010B46460DF1080A0190BE
:100C60006269012101989047051E2DD0252D2CD0B9
:100C7000216A8847C0B16269012101989047216AC1
:100C800088470028F7D1411E62690198904700E02B
:100C9000761CA1690B988847216A88470028F7D1FC
:100CA000E1690B988847DBE7A1690B9888470746FD
:100CB000A84201D1761CD3E7E1690B9888477F1CD5
:100CC00002D1B8F1000F6FD046E1002762693D46BE
:100CD0003946019890472A2804D162690121019878
:100CE00090470125DFF884926269012101989047BD
:100CF000A0F130010A290AD24F45E5DC07EB870154
:100D000000EB4107303FDFD445F01005ECE7E90682
:100D100001D46FF000476C280AD04C2814D0682802
:100D200015D06A280DD074281CD07A281AD01DE05E
:100D300062690121019890476C2802D045F00405B2
:100D400014E045F002050DE045F020050AE0626977
:100D5000012101989047682802D045F0080505E078
:100D600045F400656269012101989047C4E9015783
:100D700065283DD019DC58287AD00CDC452837D0BE
:100D800004DC252826D0412831D131E046282FD057
:100D900047282CD12CE05B2877D0612828D0632805
:100DA0007CD0642823D15AE0D0E06F2848D008DCFA
:100DB00066281DD067281BD0692821D06E2816D13F
:100DC00027E0702845D0732868D0752847D0782848
:100DD0000DD14DE0A1690B988847054625283FF4C1
:100DE00069AFE1690B9888476D1C3FF46AAFB3E0C7
:100DF00023466A466FF001000B99AFF300809EE036
:100E000045F040006060A80723464FF0000236D44A
:100E10003EE0E8077FF447AF2068011D21600068CD
:100E2000290501D506701BE7290701D5068017E7BC
:100E3000A90703D5F117C0E9006111E706600FE7C4
:100E400045F040006060A80723464FF0080216D422
:100E50001EE040F60E0125EA0100606016E045F054
:100E600040006060A80723464FF00A0207D40FE055
:100E700045F040006060A80708D5234610226FF0B7
:100E800001000B99AFF3008059E007E023461022E0
:100E90006FF001000B99FFF79DFA50E04FF0000949
:100EA0004F464B46632802D05B2806D040E0E80658
:100EB00001D40120A06001273AE062690121019874
:100EC00090475E2805D14FF00109626949460198B3
:100ED0009047216939B900210A46534643F8212039
:100EE000491C0829FADBB0B3216969B9C11700EBC5
:100EF000D16253110AEB830122F01F02821A0120F2
:100F00000B68904003430B60626901210198904790
:100F10005D28E8D1B9F1000F09D00020514651F801
:100F20002020D24341F82020401C0828F7DB02ABE8
:100F3000224600976FF001000B99AFF30080002864
:100F40000CDA401C08D1BBF1000F05D04FF0FF3088
:100F50000DB0BDE8F08FFFE74046F9E7E90701D1A2
:100F600008F1010806444FF0000B79E6CCCCCC0C1C
:100F70007F2801D9002208E0064A02EB5002C00790
:100F8000127800D1120902F00F02012090400840AF
:100F900070470000407C000830B58C1810F8012B19
:100FA00012F00F0301D110F8013B120906D110F81D
:100FB000012B03E010F8015B01F8015B5B1EF9D126
:100FC00001E001F8013B521EFBD1A142E6D3002013
:100FD00030BD00002DE9F0470446ADF5147D4069B1
:100FE000FFF79BFC074688462069FFF796FCCDE992
:100FF0000201E068FFF791FCCDE90001A068FFF76E
:101000008CFC81468A466068FFF787FC05460E46E1
:101010002068FFF782FC303441EC100B07CC10AB9A
:1010200083E8070014ED071B53EC102B8DED0E1B0E
:1010300014ED091B8DED0C1B14ED051B8DED0A1B2A
:10104000CDE90878DDE90201CDE90601DDE900011D
:10105000CDE904018DE86006084913A803F044FEB9
:1010600013A8FFF793F982B24FF0FF3313A9044896
:1010700001F012FD0DF5147DBDE8F087587E0008E3
:10108000A4030020FEE700000D4D92B0002432239F
:1010900000226946286C04F081FB60B910949DF829
:1010A00000008DF840009DF801008DF841000221FC
:1010B00010A804F0C9FC322004F034FBE7E700007C
:1010C00004000020012004F02DFBFBE7642004F065
:1010D00029FBFBE70149C87070470000A40100200C
:1010E000154A10B513491378C8545B1CD8B2107058
:1010F0000C780023552C1AD10B2819D34878512885
:1011000004D0522808D0532811D10BE051F8020F17
:101110005066486890660AE051F8020FD066486849
:10112000106704E051F8020F506748689067137029
:1011300010BD000050910020E40000202DE9F04790
:10114000244E05464FF0FF342146306804F0B8FBCA
:10115000DFF8849099F8340020B13068BDE8F0479A
:1011600004F00BBC1D4F2146386804F0A9FB65B3A1
:101170000320194C183CA0704FF0000884F8008040
:1011800000F0BCFAA060B1EE0E0A0021144805F090
:1011900099FAB1EE0E0A0421114805F093FA386865
:1011A00004F0EBFB012789F8007089F801504C46E8
:1011B00089F82C8000F0A2FA206384F8347035B1ED
:1011C00008A10AA003F080FDC7E70220D1E70FA124
:1011D000F7E7000018000020BC01002014000020E8
:1011E00084020020526967687400000043727569C8
:1011F000736520737461727421204469726563742D
:10120000696F6E3A2025730A000000004C65667411
:10121000000000002DE9F0411C4E4FF0FF3529463B
:10122000306804F04DFB1A4890F8341031B30024B4
:10123000184F80F8344004702946386804F040FBA9
:10124000134D183DAC702C7000F058FAA860386847
:1012500004F093FB02F060FFB1EE0E0A00210E488D
:1012600005F030FAB1EE0E0A04210B4805F02AFA17
:10127000B1EE0E0A0821084805F024FA306804F09F
:101280007CFBBDE8F04105A003F01EBD1800002066
:10129000BC01002014000020840200204372756904
:1012A00073652053746F700A000000002DE9F05F31
:1012B000414F4FF0FF3B5946386804F001FB3F4C6B
:1012C00094F8340000286FD000F018FA0646206B1E
:1012D0002178301ADFF8E8804FF0000A4FF001095A
:1012E000A4F11805012902D002295DD134E0B0F53E
:1012F000FA7F17D2607860B1B2EE070A0021314858
:1013000005F0E0F9B0EE0C0A04212E4805F0DAF9F8
:101310004AE0B0EE0C0A00212A4805F0D3F9B2EEFB
:10132000070AF1E70220207026635946D8F800002A
:1013300004F0C6FA85F8029085F800A0B1EE0E0A16
:1013400000212048AE6005F0BDF9B1EE0E0A04217F
:101350001C4805F0B7F923E041F28831884202D2F7
:1013600002F060FE20E094F82C00401CC0B284F82B
:101370002C00082805D3FFF74DFF13A003F0A4FCB1
:1013800012E084F8009026635946D8F8000004F073
:1013900097FA607868B10320A87085F800A0AE6065
:1013A000D8F8000004F0E9FA3868BDE8F05F04F00E
:1013B000E4BA0220F0E7000018000020BC01002081
:1013C0001400002084020020D1B2D3CECDEAB3C9EC
:1013D000A3A10A00704772B6FEE7000070B50E4C7C
:1013E000DDE9045694ED060A80ED000A94ED040A46
:1013F00081ED000A94ED020A82ED000A94ED0D0AD7
:1014000083ED000A94ED0E0A85ED000A94ED0F0AB3
:1014100086ED000A70BD0000E40000202DE9F041D7
:101420000446876D00F06AF9064694F835000025F9
:10143000022806D08020606584F834500120BDE881
:10144000F0812068016821F016010160206841697F
:1014500021F080014161206C08B9A06C20B12068A6
:10146000016821F0080101602068016821F0010194
:1014700001600CE000F042F9801B052807D920200C
:101480006065032084F8350084F83450D7E720687D
:101490000068C007EED194F85C103F208840B86027
:1014A000012084F8350084F834500020C7E790F814
:1014B0003510022903D080214165012070470521A4
:1014C00080F835100068016821F0010101600020FA
:1014D0007047000070B5044600F010F90546601C26
:1014E00002D004480078044400F008F9401BA042F0
:1014F000FAD370BD540000202DE9F84FDFF8BCA1ED
:101500000022012503264FF00F090AF1040BAAF16E
:10151000040E00BF0B6805FA02F42340A34270D109
:101520000F7907F00307012F01D0022F16D187682A
:101530004FEA420806FA08FC27EA0C07D1F80CC06B
:101540000CFA08FC4CEA070CC0F808C04768A7432F
:101550000C79C4F3001494403C4344600C79E44398
:10156000A4070AD0C4684FEA420C06FA0CF7BC4341
:101570008F6807FA0CF72743C7600C7904F003045F
:10158000022C12D1D40800EB840CDCF82040570761
:10159000FF0E09FA07F824EA0804D1F8108008FAC7
:1015A00007F848EA0408CCF8208004684FEA420CA7
:1015B00006FA0CF7BC430F7907F0030707FA0CF79C
:1015C000274307604C6814F4403F70D03C4C2768B8
:1015D00047F480472760246822F0030704F480441E
:1015E0000094384C07EB040CDCF8084897074FEAE6
:1015F000177809FA08F7BC43334FB84202D10027E5
:1016000024E054E0314FB84201D101271EE0304FB1
:10161000B84201D1022719E02E4FB84201D1032769
:1016200014E02D4FB84201D104270FE02B4FB842F0
:1016300001D105270AE02A4FB84201D1062705E06B
:10164000284FB84201D1072700E0082707FA08F71A
:101650002743CCF80878DAF800405746D1F804C0A0
:101660009C435FEACC2C00D51C433C60DBF8004077
:101670005F46D1F804C09C435FEA8C2C00D51C4324
:101680003C60DEF800407746D1F804C09C435FEA36
:101690008C3C00D51C433C60084F083F3C68D1F8A7
:1016A00004C09C435FEACC3C00D51C433C60521C08
:1016B000102AFFF42FAFBDE8F88F0000083C01406E
:1016C0004438024000300140000002400004024063
:1016D00000080240000C02400010024000140240CA
:1016E00000180240001C02400069084000D00120A0
:1016F00070470AB1816170470904FBE701488068BF
:1017000070470000540000200248816802781144AC
:1017100081607047540000200B4810B5016841F407
:1017200000710160016841F480610160016841F469
:1017300080710160032000F099F80F2000F006F896
:1017400000F04AF8002010BD003C024030B50546CC
:101750001C4887B00024016841F001010160006865
:1017600006A900F00100009001A800F033F900F094
:1017700061F915494000B0FBF1F11548134A491EC3
:10178000026040F2E732C0E90324C0E90114846139
:1017900000F09EFB040012D10D4800F0E5FB0400B0
:1017A0000DD1192000F034F8102D07D2002229465F
:1017B000192000F03BF80748056000E0012407B05D
:1017C000204630BD4438024040420F000000014036
:1017D00034040020580000200C4882B0016841F415
:1017E00080410160006800F4804000900748001FBD
:1017F000016841F0805101600068002200F08050D3
:1018000000900F21901E02B000F010B84438024042
:10181000002809DB00F01F020121914040098000EF
:1018200000F1E020C0F8001170470000F0B40E4B4A
:101830001B680C46C3F30223C3F10705042D00D92E
:101840000425191D072901D2002300E0DB1E012613
:1018500006FA05F1491E214099409E40761E164029
:101860003143F0BC03F05CBA0CED00E0064900F037
:10187000070208684FF6FF03184040EA0220034AB7
:1018800010430860704700000CED00E00000FA050E
:10189000704700002DE9F0470E46050065D0DFF8DF
:1018A0001481D8F80000F7B200F00700B04207D268
:1018B00088F80070D8F8000000F00700B04254D15A
:1018C00028683D4C810712D5400703D5206840F4B5
:1018D000E05020602878000703D5206840F460407D
:1018E00020602068A96820F0F00008432060287874
:1018F000C0072DD0304968680839012812D0022865
:1019000013D0032811D00968890700292DDA21682E
:1019100021F0030101432160FFF7F0FE814641F20F
:10192000883A0EE009688903EFE709688901ECE766
:10193000FFF7E4FEA0EB0901514502D90320BDE801
:10194000F0872068696800F00C00B0EB810FEFD1E0
:10195000D8F80010404601F00701B14207D90770DE
:10196000006800F00700B04201D00120E7E72878C6
:10197000400705D52068E96820F4E050084320605E
:101980002878000706D52068296920F4604040EADD
:10199000C100206000F05EF82168084AC1F303111D
:1019A000515CC8400649086006480068FFF7CEFE53
:1019B0000020C4E7003C024008380240647B000875
:1019C000600000205800002001490120C8647047D1
:1019D000000047420F2202600C4A136803F0030321
:1019E0004360136803F0F0038360136803F4E0536B
:1019F000C36012684FF4E05303EAD2020261044864
:101A0000006800F0070008607047000008380240D6
:101A1000003C02400448054900680968044AC1F3D3
:101A20008221515CC84070476000002008380240A5
:101A3000747B00080448054900680968044AC1F33A
:101A40004231515CC84070476000002008380240B5
:101A5000747B0008154810B5006810F00C0214489B
:101A600013D04110042A0FD0082A0ED10F4C241F86
:101A70002268236802F03F025B0207D52068C0F3AA
:101A80008810A0FB010106E0084610BD2168C1F3E3
:101A90008811A1FB00010023FEF7F2FB2168C1F3CE
:101AA0000141491C4900B0FBF1F010BD083802406B
:101AB0000024F400054810B50068000605D5FFF7BE
:101AC000E7FE02498020891C087010BD0C380240D6
:101AD0002DE9F84F04006ED02078DFF84C93C00752
:101AE000A9F104054AD009F104000168C1F381019C
:101AF000012908D00068C0F3810002280AD1D9F872
:101B00000000400206D52868800337D560680028A9
:101B1000E1D033E06068B0F5803F10D0B0F5A02F81
:101B2000286810D020F480302860286820F48020B5
:101B300028606068A8B1FFF7E1FD06460DE028685F
:101B400040F48030F4E740F480202860F7E700BFDD
:101B5000FFF7D4FD801B642873D828688003F7D56D
:101B60000CE0FFF7CBFD064605E000BFFFF7C6FD22
:101B7000801B6428F0D828688003F7D42078DFF829
:101B8000AC8280074FF0000A3ED5A748001D0168CF
:101B900011F00C0F08D00068C0F3810002280BD1AF
:101BA000D9F80000400207D42868800716D5E068FD
:101BB000012800D112E033E1E068B8B10120C8F893
:101BC0000000FFF79BFD064605E000BFFFF796FD0E
:101BD000801B0228C0D828688007F7D528682169AB
:101BE00020F0F80040EAC10028600DE0C8F800A02D
:101BF000FFF784FD064604E0FFF780FD801B022806
:101C00001FD828688007F7D42078000722D5864F90
:101C100087486169703771B101210160FFF76EFD7E
:101C2000064604E0FFF76AFD801B022809D83868E1
:101C30008007F7D50EE0C0F800A0FFF75FFD06466D
:101C400005E082E0FFF75AFD801B02287DD8386846
:101C50008007F7D42078400768D5DFF8CCB100279B
:101C60000BF13C0BDBF80000C0000BD4DBF80010DC
:101C700041F08051CBF80010DBF80000012700F0A4
:101C8000805000906B4E3068C00510D4306840F42E
:101C900080703060FFF732FD009005E0FFF72EFD09
:101CA0000099401A022850D83068C005F6D55E4E1B
:101CB000A0686C3601280FD00528306810D020F0BD
:101CC00001003060306820F004003060A068B8B1D6
:101CD000FFF714FD00900FE0306840F00100F4E7DA
:101CE00040F004003060F7E7FFF708FD0099411A63
:101CF00041F28830814266D830688007F4D50EE022
:101D0000FFF7FCFC009007E0FFF7F8FC0099411A90
:101D100041F28830814256D830688007F4D42FB120
:101D2000DBF8001021F08051CBF80010A069C8B397
:101D30003D49091D0968C1F3810102294AD00228E1
:101D4000504607D0C8F8600000E03CE0FFF7D6FC42
:101D500004463BE04746C8F86000FFF7CFFC064664
:101D600005E000BFFFF7CAFC801B02282BD82868BB
:101D70008001F7D4D4E907010843A16A2E4A490833
:101D800002EB0141626A41EA8211084394F82C1087
:101D900040EA0161C9F8001001203866FFF7AEFC87
:101DA000044606E03EE000BFFFF7A8FC001B022847
:101DB00009D828688001F7D534E000BFFFF79EFC02
:101DC000001B022802D90320BDE8F88F2868800193
:101DD000F4D427E00128F7D0D9F80000E26900F434
:101DE000800191421CD1226A00F03F01914217D13B
:101DF00047F6C071626A0140B1EB821F10D1A26A3E
:101E00004FF0FF3300F4403103EB5202B1EB024FCD
:101E100006D194F82C1000F07060B0EB016F01D087
:101E20000120D1E70020CFE70438024000004742FC
:101E3000800E4742007000400000FFFF704770476F
:101E400070B590F83C20012A32D0012480F83C4043
:101E5000022280F83D2003685A689D6822F07006CF
:101E60000A6832435A60134B02689A4214D0B2F1A6
:101E7000804F11D0104B9A420ED0104B9A420BD08B
:101E80000F4B9A4208D00F4B9A4205D00E4B9A4204
:101E900002D00E4B9A4204D1496825F080031943C1
:101EA000916080F83D40002180F83C10084670BDEC
:101EB000022070BD00000140000400400008004006
:101EC000000C0040000401400040014000180040A8
:101ED00010B5040003D094F83D0010B107E00120D4
:101EE00010BD002084F83C00204600F01FF80220BE
:101EF00084F83D00211D206802F0DAFA012084F800
:101F0000460084F83E0084F83F0084F8400084F8DE
:101F1000410084F8420084F8430084F8440084F8C7
:101F2000450084F83D00002010BD000008B50168A0
:101F30000B48B1F1804F0BD00A4A914207D101689A
:101F400041F002010160006800F00200009008BD4D
:101F5000016841F001010160006800F00100F5E74F
:101F6000403802400004004090F83D10012901D0A3
:101F700001207047022180F83D100168CA6842F0D4
:101F80000102CA6000681149884214D0B0F1804F44
:101F900011D00F4988420ED00E4988420BD00E490D
:101FA000884208D00D49884205D00D49884202D0A8
:101FB0000C49884204D1816801F00701062903D049
:101FC000016841F0010101600020704700000140FC
:101FD0000004004000080040000C004000040140E4
:101FE000004001400018004070B5044690F83C00E5
:101FF0000025012817D0012684F83C60022084F8CF
:102000003D002068826822F0770222F47F428260DD
:102010000868502838D00DDC20284FD005DC90B35C
:10202000102811D14AE0022070BD302846D0402847
:102030000AD13BE060282FD070280DD0B0F5805F2A
:1020400003D0B0F5005F12D0012584F83D60002078
:1020500084F83C00284670BDCB68D1E90121206896
:1020600002F09BFA2068816841F0770109E0CB68B3
:10207000D1E90121206802F090FA2068816841F4DA
:1020800080418160E1E719E0CA684968206802F090
:1020900059FB5021206806E0CA684968206802F0B0
:1020A00062FB6021206802F082FACEE7CA684968C4
:1020B000206802F047FB40212068F4E722680146CF
:1020C0001046F0E770472DE9F04104460068C66805
:1020D00005694FF00007A90713D5B10711D5F91EFF
:1020E000016101202077206880698007204602D0A6
:1020F000FFF7E8FF04E000F0CDF8204600F05FF9BC
:102100002777680716D5700714D521686FF004008B
:102110000861022020772068806910F4407F204603
:1021200002D0FFF7CFFF04E000F0B4F8204600F043
:1021300046F92777280715D5300713D521686FF0A2
:1021400008000861042020772068C06980072046C5
:1021500002D0FFF7B7FF04E000F09CF8204600F043
:102160002EF92777E80616D5F00614D521686FF00A
:1021700010000861082020772068C06910F4407FB3
:10218000204602D0FFF79EFF04E000F083F82046CF
:1021900000F015F92777E80708D0F00706D0216886
:1021A0006FF001000861204600F06EF9280608D59E
:1021B000300606D521686FF0800008612046FFF7E1
:1021C0003DFE680608D5700606D521686FF0400010
:1021D0000861204600F062F9A8060AD5B00608D5C5
:1021E00021686FF0200008612046BDE8F041FFF74C
:1021F00026BEBDE8F081000070B586B0044614210B
:102200006846FEF7B8F8226800261E490324022516
:102210001D48B2F1804F25D01C4B9A4220D10A684C
:1022200042F001020A600A6802F0010205920A689F
:1022300042F002020A60096801F002010591C02122
:102240008DE862006946CDE90345FFF755F98DE851
:1022500070000F486946CDE9034500BFFFF74CF910
:1022600006B070BD0A6842F001020A60096801F018
:10227000010105918DE870000121CDE90341694616
:10228000ECE700003038024000000240000400404B
:1022900000040240704770B5044690F83C000026E8
:1022A0000D4601280FD0012084F83C006AB1042AB1
:1022B0001DD0082A2FD00C2A3FD00126002084F8F8
:1022C0003C00304670BD022070BD206802F078F9F5
:1022D0002068816941F0080181612068816921F0ED
:1022E00004018161206881692A69114311E0206835
:1022F00002F096F92068816941F4006181612068EB
:10230000816921F480618161206881692A6941EADB
:1023100002218161D2E7206802F0B8F92068C16922
:1023200041F00801C1612068C16921F00401C16167
:102330002068C1692A69114311E0206802F0DAF9C6
:102340002068C16941F40061C1612068C16921F45C
:102350008061C1612068C1692A6941EA0221C161C5
:10236000ACE710B5040003D094F83D0010B107E0CD
:10237000012010BD002084F83C00204600F01EF82B
:10238000022084F83D00211D206802F091F8012010
:1023900084F8460084F83E0084F83F0084F840004A
:1023A00084F8410084F8420084F8430084F8440033
:1023B00084F8450084F83D00002010BD7047704748
:1023C00010B50446022249B104290ED0082913D0C1
:1023D00094F84100012816D0012010BD94F83E0069
:1023E0000128F9D184F83E200FE094F83F0001283D
:1023F000F2D184F83F2008E094F840000128EBD1A6
:1024000084F8402001E084F841200122206802F095
:10241000B7F816492068164A884201D0904203D185
:10242000436C43F4004343642068884213D0B0F106
:10243000804F10D00F4988420DD00F4988420AD0F2
:102440000E49884207D0904205D00D49884202D0FB
:102450000C49884204D1816801F00701062903D0A4
:10246000016841F001010160002010BD0000014041
:10247000000401400004004000080040000C00403F
:10248000004001400018004000680349884201D123
:10249000FFF73AB9704700000000014070477047ED
:1024A00070470000F8B5016804460868CA684B69BF
:1024B00010F00F0F4FF0000559D003F0010602F4A1
:1024C0009077374365D0C10705D0D10503D5616C3E
:1024D00041F001016164410705D5D90703D0616C62
:1024E00041F002016164810705D5D90703D0616C11
:1024F00041F004016164010707D502F02001314376
:1025000003D0616C41F008016164616C00293AD02C
:10251000800604D5900602D5204602F06BF92068AB
:102520004069616CC0F38010090700D460B3204695
:1025300002F039F920684069400621D5206814303E
:1025400050E8001F21F0400140E80012002AF5D1B8
:10255000E06BA8B172490165E06BFEF7A8FF0028A7
:1025600011D0E06B016D01B0BDE8F0400847830673
:102570000FD593060DD52046BDE8F84002F03AB9D4
:102580002046FFF78DFFF8BD2046FFF789FF656401
:10259000F8BD266B2023012E7ED1C6067CD5D6063B
:1025A0007AD508684868009048694FF002064006EE
:1025B0004DD5E26B106840684FF480770004000C42
:1025C0003AD0A18D814237D9E085D069B8422DD06B
:1025D00020680C3050E8001F21F4807140E80012A0
:1025E000002AF5D12068143050E8001F21F00101C5
:1025F00040E80012002AF5D12068143050E8001F8E
:1026000021F0400140E80012002AF5D184F8423060
:10261000256320680C3050E8001F21F0100140E8CD
:102620000012002AF5D1E06BFEF7F8FE6663A08D7C
:10263000E18D401A81B206E0A18D8142A8D1D06916
:10264000B842A5D166632046FFF729FFF8BDA08DEB
:10265000E18D401A81B2E08D0028F7D00029F5D035
:1026600020680C3050E8002F22F4907240E80027D8
:10267000002FF5D12068143050E8002F22F001021D
:1026800040E80027002FF5D184F842302563206808
:102690000C3050E8002F00E006E022F0100240E885
:1026A0000023002BF3D1CDE705062BD5150629D540
:1026B00094F841002128C9D1A068B0F5805F01D10C
:1026C0002069B0B1206A411C21622168007848600D
:1026D000E08C401E0004000CE084B7D12068C16883
:1026E00021F08001C1602068C16841F04001C160F3
:1026F000F8BD206A0088C0F308004860206A801C8A
:102700002062E5E74006F3D55006F1D5CA682046B9
:1027100022F04002CA6084F8413000F00DFAF8BDA2
:102720009947000870B5040004D094F841000025D2
:1027300010B106E0012070BD84F84050204600F042
:1027400023F8242084F841002068C16821F4005156
:10275000C160204602F0B0F82068016921F4904180
:1027600001612068416921F02A0141612068C16846
:1027700041F40051C1606564202084F8410084F870
:1027800042006563002070BD2DE9F04786B0044625
:1027900014216846FDF7EFFD614824685F4B002275
:1027A0005F49103802250326DFF878A14FF440670F
:1027B0004FF008099C421FD10B6843F400230B60C3
:1027C000096801F400210591016841F004010160EC
:1027D0000068009700F00400CDE904900396CDE96D
:1027E000015269465046FEF787FE00220F21342031
:1027F000FFF71CF8342028E0494BDFF82C811B1D23
:102800004FF0070C444525D1196841F010011960BB
:10281000196801F010010591016841F001010160A2
:10282000006802AC00F0010005904FF4C060CDE9F3
:10283000000584E8441069463C48FEF75DFE00222E
:102840000F212520FEF7F2FF2520FEF7E1FF06B05D
:10285000BDE8F087DFF8D880444516D10A6842F415
:1028600000320A60096801F400310591016841F005
:10287000010101600068002200F0010005900F21B5
:102880002620FEF7D3FF2620DFE7DFF8A8804445A7
:102890001FD10B6843F480230B60096801F4802189
:1028A0000591016841F0020101600068009700F0A5
:1028B0000200CDE904C00396CDE9015269461E48E5
:1028C000FEF71AFE00220F212720FEF7AFFF272078
:1028D000BBE71A498C42BAD1196841F0200119604E
:1028E000196801F020010591016841F004010160BF
:1028F000006802AC00F004000590C020CDE900059E
:1029000084E8440269465046FEF7F6FD00220F2196
:102910004720FEF78BFF472097E70000004C004060
:102920004038024000080240001001400000024010
:1029300000440040004800400004024000140140F0
:102940002DE9F84F044690F842009A4616460D4687
:10295000202802D00220BDE8F88FB5B1AEB100202A
:102960006064222184F842102063FEF7C7FEA6852A
:102970008146E685A0684FF480582027404501D164
:10298000206920B12E46002529E00120E3E700263A
:1029900025E04B46002220212046CDF800A002F081
:1029A0002CF818B184F842700320D4E726B1A0684F
:1029B00040451AD038B108E020684068C0F30800EC
:1029C00025F8020B08E0206978B12068406800F023
:1029D0007F0000BF06F8010BE08D401EE085E08D12
:1029E0000028D6D184F84270B5E720684068F1E746
:1029F00090F84230202B01D00220704721B11AB14B
:102A00000023036301F0DEBF0120704770B5054667
:102A100000681B491B4C884207D1A078FEF760FB79
:102A20000122A11C1848FFF7E3FF184928688842D3
:102A300024D1E178164A0A2913D00D2911D0A1F129
:102A400020005E2805D820783F2802D21154401C6F
:102A500020702846BDE870400A490122C91CFFF7D2
:102A6000C7BF2078002638B116540A4800231A46FA
:102A70000749006802F0F0FE2670EAE770BD00002A
:102A80000014014000000020EC030020004800403A
:102A9000FC010020440000202DE9F843044690F892
:102AA0004100984616460D46202802D00220BDE877
:102AB000F88385B17EB100206064212084F8410054
:102AC000FEF71CFEA6848146E684A0682027B0F5A8
:102AD000805F02D003E00120E9E7206910B12E46B3
:102AE00000250EE000260CE08021204601F085FF45
:102AF000A8B9C6B116F8010B21684860E08C401EE9
:102B0000E084E08C4B464FF00002CDF800800028B6
:102B1000EAD14FF04001204601F06FFF40B184F848
:102B200041700320C3E735F8020BC0F30800E3E768
:102B300084F841700020BAE77047FEE710B5124CE8
:102B4000002210212046FEF7D4FD00F04DF90022AE
:102B500020212046FEF7CDFD00F046F9012210218C
:102B60002046FEF7C6FD00F03FF900221021204666
:102B7000FEF7BFFD00F038F920460122BDE8104005
:102B80002021FEF7B6BD00000000024010B586B05F
:102B900014216846FDF7EFFB13480021026842F05C
:102BA000010202600068114C00F001000590102045
:102BB00000901120CDE901010220039069462046D2
:102BC000FEF79AFC2020009069462046FEF794FC10
:102BD000012210212046FEF78CFD012220212046F3
:102BE000FEF787FD06B010BD3038024000000240FD
:102BF00010B50F4C002210212046FEF77AFD00F0A0
:102C0000F3F8012220212046FEF773FD00F0ECF8D6
:102C1000012210212046FEF76CFD00F0E5F80022AD
:102C200010212046FEF765FDBDE8104000F0DCB83D
:102C30000000024070B5154E082500240122202115
:102C40003046FEF756FD16E06006040E0022102105
:102C50003046FEF74EFD00F0C7F801221021304645
:102C6000FEF747FD00F0C0F820213046FEF73CFD9E
:102C700008B144F001046D1EEDB2E5D2002210212E
:102C80003046FEF736FD204670BD000000000240D1
:102C900070B505460824134E18E000BFFEF729FD65
:102CA00000F0A2F8280601D5012200E00022202130
:102CB0003046FEF71EFD6806050E00F095F801226D
:102CC00010213046FEF715FD00F08EF8641EE4B2C8
:102CD0004FF000024FF010013046DFD2FEF709FD41
:102CE000002070BD0000024010B5154C01222021CB
:102CF0002046FEF7FEFC012210212046FEF7F9FCDB
:102D000000F072F820212046FEF7EEFC00280CD0DF
:102D1000002220212046FEF7ECFC00F065F820217F
:102D20002046FEF7E1FC08B1002010BD0022202162
:102D30002046FEF7DEFC00F057F8012010BD000031
:102D40000000024010B50F4C002210212046FEF773
:102D5000D0FC00F049F8002220212046FEF7C9FCF3
:102D600000F042F8012210212046FEF7C2FC00F0DC
:102D70003BF8012220212046FEF7BBFCBDE81040B5
:102D800000F032B80000024010B5164C00221021AD
:102D90002046FEF7AEFC00F027F801222021204655
:102DA000FEF7A7FC00F020F8012210212046FEF7D4
:102DB000A0FC00F019F820212046FEF795FC002821
:102DC0004FF000024FF01001204605D0FEF791FCB5
:102DD00000F00AF8012010BDFEF78BFC00F004F8AB
:102DE000002010BD000002403220401E10F0FF0005
:102DF000FBD1704770B5104D4FF48074002221460E
:102E00002846FEF776FC00F07BF9002261000B48B3
:102E1000FEF76FFC00F074F9012221462846FEF708
:102E200068FC00F06DF9002221462846FEF761FC9F
:102E3000BDE8704000F064B90000024000080240A4
:102E4000F0B587B014216846FDF795FA18480021BF
:102E5000026842F001020260026802F0010205927B
:102E6000026842F00402026000684FF4807400F0CF
:102E70000400009405901120CDE9010102200D4EBF
:102E8000039069463046FEF737FB0B4F65006946F5
:102E900038460095FEF730FB012221463046FEF70A
:102EA00028FC012229463846FEF723FC07B0F0BD76
:102EB00030380240000002400008024070B5104D5A
:102EC0004FF48074002221462846FEF712FC00F0E1
:102ED00017F9012251020B48FEF70BFC00F010F924
:102EE000012221462846FEF704FC00F009F90022E1
:102EF00021462846FEF7FDFBBDE8704000F000B912
:102F000000000240000802402DE9F047DFF85C9025
:102F10004FF4007808250024012241464846FEF778
:102F2000E8FB6E01124F16E06006040E00223146E7
:102F30003846FEF7DEFB00F0E3F801223146384662
:102F4000FEF7D7FB00F0DCF841464846FEF7CCFB25
:102F500008B144F001046D1EEDB2E5D20022314605
:102F60003846FEF7C6FB2046BDE8F0870008024061
:102F7000000002402DE9F047082405464FF4007890
:102F8000DFF850906601144F18E000BFFEF7B1FB68
:102F900000F0B6F8280601D5012200E000224146E3
:102FA0004846FEF7A6FB6806050E00F0A9F80122C8
:102FB00031463846FEF79DFB00F0A2F8641EE4B2ED
:102FC0004FF0000231463846E0D2FEF792FB002077
:102FD000BDE8F087000802400000024070B5012201
:102FE000144D540221462846FEF783FB01221102AC
:102FF0001148FEF77EFB00F083F821462846FEF7D5
:1030000073FB00280CD0002221462846FEF771FBF6
:1030100000F076F821462846FEF766FB08B100204E
:1030200070BD002221462846FEF763FB00F068F8D9
:10303000012070BD00080240000002402DE9F0416F
:10304000114D4FF48074002221462846FEF751FBB3
:1030500000F056F80D4F6600002231463846FEF764
:1030600048FB00F04DF8012221462846FEF741FBBF
:1030700000F046F8012231463846FEF73AFBBDE83B
:10308000F04100F03DB8000000000240000802409E
:103090002DE9F041184C4FF4807500222946204656
:1030A000FEF727FB00F02CF80122144F56023146A0
:1030B0003846FEF71EFB00F023F801222946204681
:1030C000FEF717FB00F01CF831463846FEF70CFB04
:1030D00000284FF000022946204606D0FEF709FBE3
:1030E00000F00EF80120BDE8F081FEF702FB00F0D1
:1030F00007F80020F7E70000000002400008024047
:103100003220401E10F0FF00FBD170472DE9F04146
:103110000026354634463746DFF8808001F0B8FC9B
:10312000B8F90010B8F904000E44B8F902100444CC
:103130000D443220FEF7CEF97F1C0A2FEEDB00EEA5
:10314000106A1648F8EEC00AB2EE040A6C3880EE37
:10315000801ADFED130A61EE201A9FED121A61EE5C
:10316000811AC0ED131A01EE905AB8EEE12AC2EEB0
:10317000001A61EEA01A61EE811AC0ED141A01EE78
:10318000904AF8EEE11A81EE802A22EE200A20EE23
:10319000010A80ED150ABDE8F08100005001002011
:1031A000000000380000FA4410B5022000F047F893
:1031B000FDF762FB9FED041B53EC112BFDF757FA53
:1031C000BDE81040FDF790BB000000000000F43F98
:1031D00010B5042000F033F8FDF74EFB9FED041B03
:1031E00053EC112BFDF743FABDE81040FDF77CBB13
:1031F0009A9999999999A93F10B5032000F01FF861
:10320000FDF73AFB9FED041B53EC112BFDF72FFA52
:10321000BDE81040FDF768BB000000000000F43F6F
:1032200010B5FFF70DFE27224321002000F02BF8F8
:10323000C5220321BDE81040052000F024B870B578
:103240000446FFF7CBFE8020FFF794FEFFF720FF38
:103250002046FFF78FFEFFF71BFFFFF7BFFE812021
:10326000FFF788FEFFF714FFFFF74EFE0446FFF757
:10327000C1FDFFF749FE0546FFF720FEFFF7DEFE22
:1032800045EA042070BD70B515460E460446FFF7AA
:10329000A5FE8020FFF76EFEFFF7FAFE2046FFF73F
:1032A00069FEFFF7F5FE3046FFF764FEFFF7F0FE1C
:1032B0002846FFF75FFEFFF7EBFEBDE87040FFF723
:1032C000BDBE10B5FFF710FDEC20FFF7E1FCFFF7E6
:1032D0005BFD1E20FFF7DCFCFFF756FDBDE810404C
:1032E000FFF730BD70B50446FFF7FEFCEC20FFF79A
:1032F000CFFCFFF749FD2046FFF7CAFCFFF744FD6E
:10330000FFF720FD0A20FEF7E5F8FFF7EDFCEC20C3
:10331000FFF7BEFCFFF738FD0020FFF7B9FCFFF711
:1033200033FDFFF70FFDFFF7DFFCED20FFF7B0FCEB
:10333000FFF72AFDFFF77EFC0446FFF7FFFBFFF7D0
:1033400079FC0546FFF7FAFBFFF774FC0646FFF72A
:103350004FFCFFF7F7FC200440EA0520304370BD26
:103360002DE9F34F2DED028B81B04820FFF7BAFF16
:10337000DFF8E891C9F804005820FFF7B3FFC9F857
:103380000800024676A0D9F8041001F09DFCDFF891
:10339000DC81D9F808004FF0000AD8F81410544620
:1033A000A0EB0127D8F81800A0FB07120AFB0722A0
:1033B00000FB0422C80D40EA4220D10D4FF4FA620E
:1033C0008518D8F8080041F10006C10B4204D8F86E
:1033D0001000A0FB073C04FB07CC00FB04C09B09CA
:1033E00043EA8063D21841EB90111046FDF751FA81
:1033F00041EC180B89ED088BD8F80410080C0A046E
:10340000D8F80C10A1FB073C04FB07CC01FB04CC53
:10341000D90941EA4C61511840EBDC10C9E90E10A2
:1034200080464FF4FA60281A009176F1000052DAD3
:10343000A7FB070104FB071107FB04114FF0004233
:103440000023FCF74EFF8346C9F80C0048484C4661
:103450002918A1FB012346F1FF3000FB013301FBDA
:1034600000373D21A2FB010C07FB01C1002302FB39
:1034700003111022FCF735FF4200C4E904020146A3
:103480003C48281A76F1FF3010DA40F2DC50281858
:10349000A0FB00734FF00F03A7FB033759182161FE
:1034A0004FEAC001A1FB0001801860615746B5EBEF
:1034B0000B0566EB07062069FDF7DEF953EC182BC8
:1034C000FDF7D2F8C4E9080100996269891A68EB2E
:1034D0000700C4E90E104C46D9F80410D4E90E32A6
:1034E000A3FB017C02FB01C103FB0A11780D40EA3A
:1034F000C120490DFDF7B2F9FDF70FFA94ED081B55
:1035000053EC112BFDF7ADF8FDF71AFA00EE100A97
:10351000DFED190AB2EE041A60EE200A80EE810A8D
:1035200010EE100AFDF7F9F9049AC2E900012846E5
:103530003146FDF77DF900EE900A9FED101A80EEFE
:10354000810A10EE100AFDF7E8F9039AC2E90001BA
:1035500001B0BDEC028BBDE8FC8F000060010020D3
:103560002564202025642020000000004C920020CB
:1035700030F8FFFF24FAFFFF000000380000C842C7
:103580002DE9F04125A001F09FFBFFF7FFFAFFF7BF
:1035900098FE2820FDF79EFF26A001F095FB012450
:1035A000DFF8AC80A02600BFFFF79EFBEC20FFF702
:1035B0006FFBFFF7E9FB06EB4400C0B2FFF768FBC7
:1035C000FFF7E2FBFFF7BEFB0520FDF783FFFFF7E8
:1035D0008BFBED20FFF75CFB0120FDF77BFFFFF786
:1035E000D3FBFFF727FB0546FFF7A8FA0120FDF7FD
:1035F00071FFFFF71FFB0746FFF7FAFAFFF7A2FB81
:1036000047EA052148F82410641CE4B2062CCBD903
:10361000BDE8F0410FA001F057BB00004D53353815
:1036200033375F496E69743A205374617274696EFE
:10363000670D0A004D53353833375F496E69743A68
:1036400020526573657420646F6E650D0A0000007A
:103650004C9200204D53353833375F496E69743AC8
:1036600020446F6E650D0A0010B5354A40211020C8
:1036700002F0C6F8334C324A0B21A06318321020F6
:1036800002F0BEF82E4AE06330324021102002F0F2
:10369000B7F82B4A206448324021102002F0B0F8DD
:1036A000274A606460324021102002F0A9F8244AC1
:1036B000A064FC3A0021244802F080F9204AE0612D
:1036C000D83A0021214802F079F91D4A2062B43A23
:1036D00000211F4802F072F9194A6062903A0021F5
:1036E0001C4802F06BF9164AA0626C3A00211A4895
:1036F00002F064F9124AE062483A0021174802F0E9
:103700005DF90F4A2063243A0021154802F056F96A
:103710000B4A6063783205210A2002F071F8E064F8
:10372000002002F0F6F8A06108B9FDF754FE002071
:1037300002F0EFF82061002002F0EBF8606110BDAC
:10374000D47A000804000020B9420008891000085B
:10375000893E0008CD100008C5100008953C0008FF
:10376000E14300082DE9F04F87B014216846FCF7CB
:1037700002FE48480025016841F0800101600168AF
:1037800001F080010591016841F0010101600168CB
:1037900001F001010591016841F004010160016837
:1037A00001F004010591016841F002010160016826
:1037B00001F002010591016841F008010160006813
:1037C000002200F00800059041F630113248FDF764
:1037D00090FFDFF8C89000224FF404714846FDF7CF
:1037E00088FF4FF48057002239464846FDF781FF95
:1037F000DFF8ACB0002204215846FDF77AFFDFF86D
:10380000A4A0002204215046FDF773FF4FF49870E6
:103810004FF011080226CDE90008CDE902566946AD
:103820001D48FDF769FE102001248DE8310069462E
:1038300048460394FDF760FE0097CDE901456946CF
:1038400048460394FDF758FE04270097CDE901454B
:10385000694650460394FDF74FFE01AA009782E89F
:10386000700069465846FDF747FE6002CDE9000842
:10387000CDE9025669464846FDF73EFE4FF4C0507A
:103880008DE83100694604480394FDF735FE07B022
:10389000BDE8F08F303802400000024000080240CE
:1038A00000040240000C024010B58EB000240794C2
:1038B000089409940A940B941C2168460C94FCF714
:1038C0005AFD22484FF0804101607721C0E9011480
:1038D00040F2E731C0E903148461FEF7F9FA08B158
:1038E000FDF779FD4FF48050079007A91748FEF7C0
:1038F0007BFB08B1FDF76FFD1448FEF732FD08B100
:10390000FDF769FD0B940BA910480C94FEF798FA8B
:1039100008B1FDF760FD6020CDE9000402940022AB
:1039200069460A480494FEF7B6FC08B1FDF753FD5A
:10393000042269460548FEF7AEFC08B1FDF74BFDD1
:103940000248FEF759FC0EB010BD00003C020020FA
:1039500070B58EB000250795089509950A950B95C9
:103960001C2168460C95FCF706FD3D4C3B48206049
:1039700044F29F10C4E90105C720C4E903052046AD
:10398000A561FEF7A5FA08B1FDF725FD4FF48050BB
:10399000079007A93248FEF727FB08B1FDF71BFD8A
:1039A0002F48FEF7DEFC08B1FDF715FD0B950BA9BE
:1039B0002B480C95FEF744FA08B1FDF70CFD60208A
:1039C00000900F26CDE90165002269462448049540
:1039D000FEF761FC08B1FDF7FEFC042269462048B1
:1039E000FEF759FC08B1FDF7F6FC082269461C48B1
:1039F000FEF751FC08B1FDF7EEFC0C2269461848B1
:103A0000FEF749FC08B1FDF7E6FC00211448FEF77B
:103A1000D7FC08B1FDF7DFFC04211148FEF7D0FC0C
:103A200008B1FDF7D8FC08210D48FEF7C9FC08B124
:103A3000FDF7D1FC0C210A48FEF7C2FC08B1FDF7E6
:103A4000CAFC20684663206886632068C6632068D5
:103A500006640348FEF7D0FB0EB070BD00040040C2
:103A6000840200200C4810B50A4901604FF4E1318E
:103A70004160002181600C22C160C0E904128161B3
:103A8000C161FEF74FFE002803D0BDE81040FDF7EE
:103A9000A2BC10BD004C0040CC0200200C4810B568
:103AA0000A4901604FF4E1314160002181600C223C
:103AB000C160C0E904128161C161FEF733FE0028D4
:103AC00003D0BDE81040FDF786BC10BD00100140DA
:103AD000140300200C4810B50A4901604FF4E1318D
:103AE0004160002181600C22C160C0E90412816143
:103AF000C161FEF717FE002803D0BDE81040FDF7B6
:103B00006ABC10BD004400405C0300200C4810B5A6
:103B10000A4901604FF4E1314160002181600C22CB
:103B2000C160C0E904128161C161FEF7FBFD00289C
:103B300003D0BDE81040FDF74EBC10BD004800406A
:103B4000A40300200C4810B50A4901604FF4E1318C
:103B50004160002181600C22C160C0E904128161D2
:103B6000C161FEF7DFFD002803D0BDE81040FDF77E
:103B700032BC10BD00140140EC030020FEE7000041
:103B800010B586B014216846FCF7F5FB17480021F4
:103B9000026842F0010202600068154C00F001006A
:103BA000059040F20C6000900120CDE901010391E5
:103BB00069462046FDF7A0FC002204212046FDF7BF
:103BC00098FD002208212046FDF793FD0022611593
:103BD0002046FDF78EFD002221152046FDF789FDC8
:103BE00004A001F071F806B010BD000030380240AA
:103BF000000002404D6F746F722064726976652018
:103C0000696E697469616C697A6174696F6E0A00C2
:103C1000FDF750FFFEE7000010B5FFF73FFFBDE8DE
:103C2000104001A001F050B84F70656E4D562069EC
:103C30006E697469616C697A65640A0010B58AB04E
:103C40000446202101A8FCF796FB4FF4FA731F22CB
:103C500001A90A48FEF774FE201D0090A31C22460D
:103C600007A101A8FCF79AFB032804D04FF0FF300E
:103C700020806080A0800AB010BD000014030020E6
:103C8000583A2568642C593A2568642C5A3A2568B4
:103C900064000000084C90B00A2300226946606C62
:103CA00001F07CFD18B90321684601F0CDFE0A2021
:103CB00001F038FDF0E700000400002010B5FFF728
:103CC00009FF012003F056F803490860BDE81040E1
:103CD00002A000F0F9BF0000A00100205246C4A3DA
:103CE000BFE9B3F5CABCBBAFCDEAB3C90A00000057
:103CF00001460520AFF3008070B5514D0C462DED07
:103D0000028B064688B04FF0FF31286803F0FAFABC
:103D100001287DD1AA208DF800008DF80160052EC4
:103D200077D1D4ED000A9FED470A60EE800AFDEEE0
:103D3000E00A10EE900AADF80200D4ED010A60EE40
:103D4000800AFDEEE00A10EE900AADF80400D4ED12
:103D5000020A60EE800AFDEEE00A10EE900AADF86D
:103D60000600D4ED030A60EE800AFDEEE00A10EED4
:103D7000900AADF80800D4ED040A60EE800AFDEE6A
:103D8000E00A10EE900AADF80A00D4ED050A20EE24
:103D9000800ABDEEC00A10EE100AADF80C0094EDDA
:103DA0000A0B9FED298B51EC100B53EC182BFCF7F1
:103DB0005EFCFCF77AFDADF80E0094ED060B53ECBB
:103DC000182B51EC100BFCF752FCFCF76EFDADF814
:103DD000100094ED080B9FED1E1B51EC100B53ECE3
:103DE000112BFCF744FCFCF77FFDADF81200208E90
:103DF000ADF81400A08EADF81600208FADF81800B5
:103E000000208DF81A0069469DF81A200B5C01E02D
:103E100011E00AE05A40401C8DF81A201A28F3D30A
:103E200064231B220C48FEF737FE00231A4619466E
:103E3000286803F04FF808B0BDEC028B70BD00009D
:103E4000A00100200000C84200000000000059400E
:103E500000000000000024405C0300200FB400219B
:103E600010B5084CA06901F02BFD002806D103A96C
:103E7000029800F04DFFA06901F07FFD10BC5DF8D5
:103E800014FB0000040000209EB003F0BDFB1C905A
:103E90000AA800F039F80F98FCF73FFD82468B46E0
:103EA0000E98FCF73AFD06460F460D98FCF735FDD7
:103EB00004460D460C98FCF730FDCDE900010B9847
:103EC000FCF72BFD804689460A98FCF726FD41EC5D
:103ED000100B04A853EC102B80E8F00CDDE9000176
:103EE000CDE902010748CDE90089FFF7B7FF0AA82D
:103EF000FFF7FEFE0AA8FDF76DF80A211CA802F0E4
:103F00005BFDC5E7807C000830B504462DED048BD1
:103F10008DB000F0BDFD0BA90AA8CDE9000109ABE9
:103F200008AA07A906A8FDF759FA9DED060A284D2B
:103F300084ED000ADDED070A04A9C4ED010A9DED38
:103F4000081A02A884ED021ADDED091AC4ED031A5D
:103F50009DED0A2A84ED042ADDED0B2AC4ED052A25
:103F60009DED060A85EC060AFFF7FAF99DED029B26
:103F70009FED180B84ED069B9DED048B53EC102BED
:103F800084ED088B51EC180BFCF76BFB9FED131BBA
:103F900053EC112BFCF7DDFBC4E90A0185ED069B10
:103FA00085ED088B94ED0A0B85ED0A0BFFF7FCF805
:103FB0002063FFF70DF96063FFF71EF9A06304F1BA
:103FC0003C00FFF73BFE0DB0BDEC048B30BD0000A4
:103FD000689200200000000000C88E400000002011
:103FE000C679EF3F10B5FFF791F8FFF7C9FAFFF771
:103FF00017F9FFF711FE48210348FCF7BCF9BDE8AB
:10400000104002A000F060BE6892002053656E73FD
:104010006F72735F496E697420636F6D706C657445
:10402000650D0A0070B51F4CA078012810D1FDF76E
:1040300065FB0346A07810B1A078012808D122784A
:10404000194832B1012A10D00021022A19D021705A
:1040500070BDA1682278591A50F822008142F7D326
:1040600001202070B1EE0E0A15E0A1682278591ADD
:1040700050F822008142EBD302202070B2EE010AF8
:1040800009E0A26825789A1A50F825008242DFD309
:104090002170B1EE0A0A0821044802F013FBA36064
:1040A00070BD0000A40100207C7B00088402002079
:1040B00010B5FDF723FB114BB1EE0E0A00219860FD
:1040C0000F4802F0FFFAB1EE0E0A04210C4802F08C
:1040D000F9FAB1EE0E0A0821094802F0F3FAB2EE3D
:1040E000010A0C21064802F0EDFA002018709870C1
:1040F000BDE8104003A000F0E7BD0000A4010020CF
:1041000084020020B6E6BBFAC7FDB6AFD2D1B3F544
:10411000CABCBBAF0A00000010B5B1EE0E0A002108
:104120000B4802F0CFFAB1EE0E0A0421084802F063
:10413000C9FAB1EE0E0A0821054802F0C3FA054C8F
:1041400000202070A070FDF7D9FAA06010BD00001B
:1041500084020020A40100202DE9F04F2DED028BF8
:1041600087B0FDF7CBFA424B05469878022802D07B
:104170009878032807D1187850B1012808D0022870
:1041800006D00020187007B0BDEC028BBDE8F08FA0
:10419000986838491A78281A51F822108842F2D3C0
:1041A00018780321401CB0FBF1F201FB120698784D
:1041B000022801D0012000E0002000EB40012D4842
:1041C000183000EBC10000EBC600D0ED000A90ED06
:1041D000010A27481830D0ED0A1A987802283FD0F3
:1041E00030EEE18A70EE218A00212348B0EE480AC1
:1041F00002F068FAB0EE680A04211F4802F062FA81
:104200001C4808210C3000EB860090ED000A1A488B
:1042100002F058FA9B461E709D605869281AB0F546
:10422000FA7FB0D911EE900AFCF777FB81468A46F7
:1042300018EE900AFCF771FB0746884618EE100A44
:10424000FCF76BFB8DE883079BF802005C460228B5
:104250000BD00AA132460AA000F036FD656192E754
:1042600030EEA18A70EE618ABEE712A1F2E700008B
:10427000A40100207C7B000884020020D3D200002F
:104280002573D7AA3A20D7B4CCAC2564207C204330
:1042900048313D252E316625252C204348323D25C9
:1042A0002E316625252C205049443D252E32660AA4
:1042B00000000000D7F30000DFF81081DFF8109154
:1042C000444C4FF0FF374FF47A7A00BF00F08EFC79
:1042D0003E463946206901F0F3FA207898F80050FC
:1042E000206901F04AFB3146606901F0E9FA99F86A
:1042F0003460606901F041FB16B1FCF7D7FFE5E7D8
:10430000012D05D0022D06D0032D04D035B110E0CB
:10431000FFF788FE0DE0FFF71FFF0AE0FDF7EEF95B
:104320006168401A504504D9FFF7F6FEFDF7E6F93B
:1043300060606078FF2813D010B3012823D00228D2
:1043400024D0032825D0042826D0052827D00628E5
:1043500028D0072829D008282AD009282BD030E0D7
:10436000FDF7CCF9E168401A50452AD9B2EE030AAC
:104370000C21194802F0A6F9FDF7C0F9E06020E031
:10438000B1EE020A19E0B1EE060A16E0B1EE0A0A31
:1043900013E0B1EE0E0A10E0B2EE010A0DE0B2EE4B
:1043A000030A0AE0B2EE050A07E0B2EE070A04E0EB
:1043B000B2EE0B0A01E09FED090A0C21064802F05B
:1043C00081F90A2001F0AEF980E70000A601002083
:1043D000BC010020040000208402002000000E42E6
:1043E000642001F09FF9FBE710B54FF0E020006971
:1043F00003F0FCF8012803D0BDE8104002F0A4BC93
:1044000010BD000030B593B030216846FBF7B3FF14
:1044100014210CA8FBF7AFFF1C480025016841F0F0
:1044200080510160006800F08050119018480168C8
:1044300041F4804101600068022400F48040119042
:1044400001200090000401908001CDE9064008AAF7
:104450000420A82182E813000B906846FDF738FB82
:1044600008B172B6FEE70CA90F2081E831004FF4C5
:104470008050CDE90F0505210CA8FDF70BFA08B116
:1044800072B6FEE7FDF7A0FA13B030BD4038024027
:10449000007000400248016841F4700101607047FB
:1044A00088ED00E00148FDF70EBE00003404002056
:1044B000F0B50268274B284D284E294F294C4FF064
:1044C000804C984209D0604507D0A84205D0B04240
:1044D00003D0B84201D0A04204D122F0700E4A6845
:1044E00042EA0E0298421BD0604519D0A84217D06C
:1044F000B04215D0B84213D0A04211D01A4DA842F4
:104500000ED01A4DA8420BD0194DA84208D0194D13
:10451000A84205D0184DA84202D0184DA84203D198
:1045200022F44075CA682A434D6922F080022A436A
:104530008D68C5620D688562984201D0A04201D1A4
:1045400009690163016841F00401016001214161D1
:104550000260F0BD0000014000040040000800407F
:10456000000C0040000401400040014000440140B4
:104570000048014000180040001C0040002000409E
:1045800010B501F01F030121046A99408C430462B5
:10459000016A9A401143016210BD10B5846842EA75
:1045A000032224F47F440A432243826010BD8268C0
:1045B00022F070020A4342F0070181607047000058
:1045C000F0B5036A026A22F001020262426884695D
:1045D000124E24F073050C682C4323F002058B68FF
:1045E0002B430D4DA84201D0B04205D123F008075E
:1045F000CB683B4323F00403A84201D0B04205D16D
:104600004D6922F4407215438A692A4342608461ED
:10461000496841630362F0BD0000014000040140AD
:10462000F0B5026A036A23F01003036243688469E9
:104630000D6824F4E64444EA05248D6822F0200243
:1046400042EA05120F4D104EA84201D0B04206D1E9
:10465000CF6822F0800242EA071222F04002A8420C
:1046600001D0B04207D14D6923F4406343EA85038A
:104670008D6943EA8503436084614968816302620E
:10468000F0BD00000000014000040140F0B5026AE6
:10469000036A23F4807303624368C46922F40072DE
:1046A00024F073050C68124E2C438D6842EA0522F3
:1046B0000E4DA84201D0B04206D1CF6822F400626C
:1046C00042EA072222F48062A84201D0B04207D118
:1046D0004D6923F4405343EA05138D6943EA0513FA
:1046E0004360C4614968C1630262F0BD00000140DB
:1046F0000004014030B5046A026A22F4805202626A
:104700004268C3690D6823F4E64343EA05238D68D4
:1047100024F4005444EA0534084DA84202D0084D60
:10472000A84204D14D6922F4804242EA85124260D7
:10473000C36149680164046230BD000000000140AB
:104740000004014010B5036A046A24F00104046205
:10475000846924F0F00444EA021423F00A020A43B4
:104760008461026210BD10B5036A046A24F010046B
:104770000462846923F0A00324F4704444EA023202
:1047800043EA01118261016210BD00000148FDF79A
:1047900089BE0000CC02002010B5806B0021C185CD
:1047A000FDF77EFE10BD01680C3151E8002F22F4A8
:1047B000907241E80023002BF5D10168143151E8D3
:1047C000002F22F0010241E80023002BF5D1016BFC
:1047D000012909D101680C3151E8002F22F01002A3
:1047E00041E80023002BF5D1202180F84210002160
:1047F0000163704708B590F84210222901D00220C9
:1048000008BD82684FF480539A4201D1016921B1F9
:10481000816A9A421BD04AB10AE00268816A5268F2
:10482000C2F308020A80816A891C08E0026972B139
:104830000268526802F07F020A70816A491C816234
:10484000C18D491E0904090CC18503D01BE0026813
:104850005268F1E70168CA6822F02002CA60016864
:10486000CA6822F48072CA6001684A6922F00102B3
:104870004A61202180F8421000214163026B012A25
:1048800003D0FEF7C3F8002008BD016301680C31B6
:1048900051E8002F22F0100241E80023002BF5D14F
:1048A00001680A68D20602D50A6849680091818DBC
:1048B000FDF7F5FDE7E7000070B504460068016903
:1048C000E26821F44051114301612169A068E26965
:1048D00008436169114308432168CA6849F20C63BF
:1048E0009A430243CA6020684169A26921F4407179
:1048F0001143416131492068884202D030498842E1
:1049000002D1FDF797F801E0FDF784F8E269002392
:10491000192164253226B2F5004F626828D0A0FB29
:104920000101930F9200FBF7ABFC0146B0FBF5F0E1
:104930006FF01802504301EB800006EB0010B0FB53
:10494000F5F000F0F002B1FBF5F002EB0012B1FB64
:10495000F5F06FF01803584301EB800006EB0010F0
:10496000B0FBF5F000F00F0021681044886070BDC6
:10497000A0FB010192185B41FBF782FC0146B0FBF2
:10498000F5F00201B1FBF5F06FF01803584301EBAD
:10499000800006EBC000B0FBF5F000F0F80002EB81
:1049A0004002B1FBF5F0584301EB800006EBC0007C
:1049B000B0FBF5F000F00700D6E700000010014062
:1049C0000014014081628285C28500214164222158
:1049D00080F84210016921B10168CA6842F480720E
:1049E000CA6001684A6942F001024A610068C16810
:1049F00041F02001C160002070472DE9F84398463E
:104A000017460D460446089E24E0701C22D0FCF791
:104A100075FEA0EB0800B0421AD8CEB12068C1687C
:104A2000490717D5802D15D0402D13D00168C943F3
:104A300009070FD401680025406800902046FFF761
:104A4000B2FE0820606484F840500120BDE8F8837D
:104A50000320FBE72068006835EA000004D000204E
:104A6000B842D2D00020F1E70120F9E70148FDF774
:104A700019BD0000140300200148FDF713BD00001C
:104A80005C0300200148FDF70DBD0000A4030020D9
:104A90004E49B1F9000000EE100AB8EEC00ADFED91
:104AA0004C0A20EE201A9FED4B0AA1F16C0021EE7A
:104AB000001A80ED101AD0ED131A71EE611AC0EDD4
:104AC0000D1AB1F9022001EE102AB8EEC11A21EE3A
:104AD000201A21EE001A80ED111A90ED142A31EE01
:104AE000421A80ED0E1AB1F9041002EE101A00F10C
:104AF0007401B8EEC22A22EE202A22EE000A80EDCE
:104B0000120A90ED152A70EE422AC0ED0F2AB1F973
:104B1000002000EE102AB8EEC00A20EE202A9FEDF9
:104B20002E0A22EE002A80ED062A90ED163A72EE49
:104B3000433AC0ED053AB1F9022002EE102AB8EE70
:104B4000C22A22EE202A22EE002A80ED042A90EDCD
:104B5000173A32EE432A80ED032AB1F9041003EE2E
:104B6000101AB8EEC33A63EE200A60EE800AC0ED78
:104B7000020A90ED183A30EEC33ADFED180A80EDE4
:104B8000013A63EEA03A22EE202A61EEA01A21EE4D
:104B9000201A83EE804AC2EE003A23EE202A80EDEE
:104BA000074A82EE003AC0ED083A81EE802A80ED95
:104BB000093AC1EE001A80ED0A2A62EEA00A80EEE0
:104BC000801AC0ED0B1A80ED0C1A704750010020BE
:104BD000000000380000FA4400003443C3F54840A8
:104BE0000148FDF75FBC0000EC03002070B53248BF
:104BF000C078324C6515261501281ED0022839D000
:104C0000002204212046FCF774FD002208212046E2
:104C1000FCF76FFD002229462046FCF76AFD0022C2
:104C200031462046FCF765FDB1EE0E0A002124480E
:104C300001F048FDB1EE0E0A38E0002204212046C2
:104C4000FCF757FD012208212046FCF752FD012206
:104C500029462046FCF74DFD002231462046FCF750
:104C600048FDB2EE030A0021154801F02BFDB1EE1C
:104C7000060A1BE0012204212046FCF73AFD00222F
:104C800008212046FCF735FD002229462046FCF786
:104C900030FD012231462046FCF72BFDB1EE060A1D
:104CA0000021074801F00EFDB2EE030ABDE8704096
:104CB0000421034801F006BDA401002000000240C9
:104CC00084020020FEE700000FB4054B10B503A9D5
:104CD000044A029800F006F910BC5DF814FB0000CD
:104CE00039560008F80100200FB4084B10B504A98C
:104CF00002AA039800F0F6F8044602A9002000F08A
:104D000088FC204610BC5DF814FB00001356000818
:104D1000014B024A00F0E6B839560008F8010020BD
:104D20000907090E002804DB00F1E02080F80014D8
:104D3000704700F00F0000F1E02080F8141D70476C
:104D400002E008C8121F08C1002AFAD17047704754
:104D5000002001E001C1121F002AFBD170470000B2
:104D60002DE9FF5F82B00021DDE90430020DDDF89E
:104D700040B0034318D044F61050A2F2FF32424331
:104D80001514119801281FD0A5EB0B00401C5FEAF9
:104D9000000A4FF000064E4FDFF83891B0465046FB
:104DA00015D5CAF1000413E0119801244AA3012883
:104DB00001D16FEA0B010298119AC0E90031C0E9F4
:104DC000024206B0BDE8F09FCBF10000DFE70446E9
:104DD0000021404A491842EB0450CDE9001012E08E
:104DE000E00707D032463B4640464946FBF73FFCCA
:104DF0008046894632463B4610461946FBF737FC4B
:104E000006460F466410002CEAD1DDE90401DDE915
:104E10000023BAF1000F06DAFBF729FC42464B46A5
:104E2000FBF725FC05E0FBF794FC42464B46FBF7FD
:104E300090FC04460E460022284BFBF7D3FE03D815
:104E40004FF0FF30014607E00022254B2046314657
:104E5000FBF766FBFBF7AEFE102409E0002C0ADB33
:104E60000A220023FBF70CFA039B30321A55641E0A
:104E700050EA0102F2D1641C039AC4F111031444F4
:104E8000119A012A03D0012208430DD10AE00843F8
:104E900004D000204FF0110B119072E7A3EB0B052B
:104EA0006D1E0DE05B4504DD4FF0000205F10105CC
:104EB00004E003DA4FF00002A5F10105002AECD06E
:104EC00002981199C0E90231C0E9004579E7000074
:104ED000000014400000F03F300000000000F043EC
:104EE0000000E03F2DE9FF4F95B09B4689460646FE
:104EF00000250FE2252877D100242746F84A012112
:104F0000059400E0044316F8013F203B01FA03F04A
:104F10001042F7D130782A2811D06FF02F03307863
:104F2000A0F13002092A16D8059A44F0020402EBD7
:104F3000820203EB42021044761C0590EFE759F819
:104F4000042B0592002A03DA504244F400540590E1
:104F500044F00204761C30782E2816D116F8010F82
:104F600044F004042A280DD06FF02F023078A0F10D
:104F70003003092B09D807EB870302EB4303C7185B
:104F8000761CF3E759F8047B761C30786C280FD038
:104F900006DC4C2817D068280DD06A2814D104E00C
:104FA000742810D07A280FD10DE044F400140AE0E0
:104FB00044F4801401E044F440147278824202D137
:104FC00004F58014761C761C307866280BD013DC30
:104FD000582877D009DC002875D04528F6D0462817
:104FE000F4D047281AD19DE118E0632835D0642811
:104FF00079D0652812D195E1702873D008DC672834
:10500000F1D069286FD06E280DD06F2806D1B5E099
:1050100073282CD0752875D0782874D05A461799E3
:1050200090476D1C75E1C4F30250022809D0032893
:105030000DD0D9F8001004280DD00D6009F1040935
:1050400067E1D9F80010EA17C1E90052F6E7D9F88C
:1050500000100D80F2E70D70F0E719F8041B8DF8D1
:10506000001000208DF80100EA46012003E059F805
:1050700004AB4FF0FF3061074FF0000102D40DE0A8
:1050800008F101018846B9420FDA8045F8DB1AF8C9
:1050900008100029F4D108E008F101018846814296
:1050A000FADB1AF808100029F6D105985B46A0EB48
:1050B000080721463846179A00F094FA284400EB76
:1050C000080507E04DE029E10DE01AF8010B5A460A
:1050D00017999047B8F10108F7D25B462146384648
:1050E000179A13E142E00A220092C4F302524FF0F1
:1050F000000A022A08D059F804CB032A4FEAEC71BF
:105100000AD00DE029E02AE009F1070121F00702A9
:10511000F2E802C1914609E00FFA8CFC4FEAEC710B
:10512000042A03D14FFA8CFC4FEAEC71002907DA0C
:105130000A460021DCF1000C61EB02012D2202E0A5
:10514000220504D52B228DF80420012203E0E2077A
:1051500001D02022F7E7904659E00A2102E0102210
:105160000DE010214FF0000A00910BE010224FF0EB
:10517000000A44F004040827009203E008224FF0DC
:10518000000A0092C4F30252022A05D059F804CB57
:105190000021032A08D009E009F1070121F00702E4
:1051A000F2E802C1914605E01FFA8CFC042A01D105
:1051B0000CF0FF0C4FF00008220728D5702806D00D
:1051C000009B83F0100353EA0A0305D00EE040224F
:1051D0008DF80420012208E05CEA010206D03022AA
:1051E0008DF804208DF8050002229046009B83F084
:1051F000080353EA0A030AD15CEA010201D16207FB
:1052000005D530228DF804204FF001087F1E582864
:1052100004D034A003900EA802900DE036A0F9E768
:1052200053466046009AFBF72BF884460398825C4D
:105230000298401E029002705CEA0100F0D10298D0
:1052400006A9081A00F1200A600702D524F4803468
:1052500000E00127574502DDA7EB0A0000E000202F
:1052600000EB0A01009005984144401A0590E003C4
:1052700006D45B462146179A059800F0B3F9054419
:10528000002706E001A85A46C05D179990476D1C9B
:105290007F1C4745F6DBE0030CD55B462146179A99
:1052A000059800F09FF9054404E030205A4617990C
:1052B00090476D1C0099481E00900029F5DC08E01D
:1052C000029802995A460078491C02911799904712
:1052D0006D1CBAF10001AAF1010AF1DC65E10000E0
:1052E00009280100303132333435363738396162BC
:1052F0006364656600000000303132333435363780
:1053000038394142434445460000000000F058F956
:105310000544761C307800287FF4ECAD19B028469F
:10532000BDE8F08F620700D4062709F1070222F0DA
:10533000070CFCE80223E14603F000485FEA080C92
:1053400002D00FF2702C0DE05FEA045C02D50FF280
:10535000682C07E05FEAC47C02D00FF2602C01E009
:10536000AFF2700C4FF0FF3823F00043CDF850C07F
:1053700065280CD006DC452809D046281DD04728D2
:105380003DD13DE0662818D067287ED138E0002165
:10539000112F01DB112000E0781CCDE9000106A9E6
:1053A0000EA8FFF7DDFCDDE90F010E9A0391002145
:1053B000009207F1010A04914DE04FF00040009780
:1053C000CDE9011006A90EA8FFF7CAFCDDE90F021E
:1053D00003920E9B11990022DDF80CA00093049219
:1053E00011B9791C00EB010AB7EB0A0004D4C0F133
:1053F000FF3007F1010A0490AAEB0700019044E096
:10540000012F00DA01270021112F01DD112000E01A
:105410003846CDE9000106A90EA8FFF7A1FCDDE999
:105420000F010E9A0391002104910092BA462107C0
:105430000CD40399514500DA8A46BAF1010F05DD13
:10544000009AAAF10101515C302908D0B84202DA71
:1054500010F1040F06DA0121CDE9011015E0AAF1DF
:105460000101E9E7002805DC049901440491AAEB55
:10547000000102E0411C514500DD8A460499401AB2
:10548000401C01904FF000400290200704D4019886
:10549000504501DBCDF8048000208DF84F000298C4
:1054A0000DF14F07B0F1004F25D02B200E90029840
:1054B0004FF0020800280CDA404202902D200E9096
:1054C00007E00A210298FBF757FA3031029007F8FB
:1054D000011DB8F10001A8F10108F2DC02980028D2
:1054E000EFD1791E0E980870307800F0200040F05F
:1054F000450007F8020D12A8C01B00F10708149818
:10550000007800B1012000EB0A01019801EBE07185
:1055100005984144401A401E0590E00306D45B46BE
:105520002146179A059800F05DF805441498007814
:1055300018B15A46179990476D1CE00324D55B4675
:105540002146179A059800F04DF805441CE0049890
:10555000002807DBDDE90301884203DD0098405C99
:10556000179901E0179930205A469047049805F1A1
:105570000105401C04900198401E019004D12E208A
:105580005A46179990476D1CBAF10001AAF1010A19
:10559000DDDC05E017F8010B5A46179990476D1CA2
:1055A000B8F10001A8F10108F4DC5B462146179A26
:1055B0000598ABE62D0000002B0000002000000045
:1055C0002DE9F041044600251E461746880404D400
:1055D00005E039462020B0476D1C641EF9D52846E9
:1055E000BDE8F0812DE9F041044600251E469046B5
:1055F000C80301D5302700E02027880404D505E042
:1056000041463846B0476D1C641EF9D52846BDE8B2
:10561000F0810A68531C0B601070704701A0FFF7FF
:1056200053BB0000626C7565746F6F74682073748F
:10563000617274656421000013B54FF0FF34234696
:10564000012269460548FDF727FA234601226946EB
:105650000348FDF721FA00981CBD00001403002048
:10566000A4030020FCF758F8FEF7CCFEFEF77AF80A
:10567000FEF7F8F9FEF712FAFEF764FAFEF72AFAD7
:10568000FEF744FAFEF710F9FEF762F96420FBF723
:1056900021FF01221E491F48FDF7AAF91C490122DA
:1056A000491C1D48FDF7A4F919490122891C1B4812
:1056B000FDF79EF9FEF796FCFEF700FBFFF7AEFF45
:1056C000FEF7F6FCFEF75CFAB1EE0E0A0021144874
:1056D00000F0F8FFB1EE0E0A0421114800F0F2FFCD
:1056E000B1EE0E0A08210E4800F0ECFFB1EE0E0AF2
:1056F0000C210B4800F0E6FF00F022F8FDF7B4FFA4
:1057000000F030F84FF47A742046FBF7E3FEFBE735
:105710000100002014030020EC030020A40300205B
:105720008402002010B5EFF3058111B16FF005047C
:1057300003E0002408B101F019F9204610BD000073
:10574000EFF3058010B16FF0050070470448016861
:1057500011B14FF0FF307047012101600020704708
:10576000B400002010B5EFF3058010B16FF0050014
:1057700010BD08480168012902D04FF0FF3010BD6C
:10578000054A002182F8141D0221016001F0E4F9AC
:10579000002010BDB40000200BE000E0F8B51D466D
:1057A0006FF003026FF002064FF00004EFF3058381
:1057B000A3B1F0B1E9B1E5B9002200926A4601F067
:1057C00053FD012817D10098B0B10C494FF080501B
:1057D0000860BFF34F8FBFF36F8F0DE048B141B149
:1057E0002A4601F0A5FC012806D025B16FF001047E
:1057F00002E0144600E034462046F8BD04ED00E027
:10580000F8B514464FF00005EFF3058212BB08B35C
:1058100001B3A4B1D4E9023263B1502A1AD3226988
:10582000C2B1676900FB01F6B74213D3009501F0DE
:10583000DAFA07E072B9226962B9626952B90022E4
:1058400001F0B0FA050005D00CB1216800E000219C
:1058500001F056F82846F8BDF8B51D466FF0030272
:105860006FF002064FF00004EFF30583ABB100B315
:10587000F9B1F5B90022134600926A4601F0DAFB4D
:10588000012818D10098B8B10C494FF08050086039
:10589000BFF34F8FBFF36F8F0EE050B149B10023BC
:1058A0002A4601F017FB012806D025B16FF001044C
:1058B00002E0144600E034462046F8BD04ED00E066
:1058C0002DE9F0410D46014621F0010001F00101F2
:1058D0004FF00004EFF305820AB1A41F16E048B1AF
:1058E00000296FF001066FF00207294608D001F089
:1058F000C5FD07E06FF0030408E035B1344605E06C
:1059000001F000FD0128F8D100E03C462046BDE84A
:10591000F08170B505464FF00004EFF3058050BBF1
:105920000DB1686800E00020C10701D0012600E049
:10593000002600071FD46DB1D5E9021021B150280F
:1059400019D31EB1042002E020B114E0012001F0BF
:105950001CFA05E00EB1042000E0012001F00AFA73
:10596000040008D00DB1296800E0002100F0C8FF54
:105970000EB144F00104204670BD70B5014621F01F
:10598000010001F001014FF00004EFF305820AB1BC
:10599000A41F11E028B16FF0020529B101F0A9FBA5
:1059A00007E06FF0030407E000231A46194601F0F0
:1059B00091FA012800D02C46204670BD2DE9FF4108
:1059C0004FEA01034FF00005EFF30581039549BB52
:1059D00040B38027182100244AB3166806B1344624
:1059E00096691EB13146761E382E02D21679F60718
:1059F00003D0002004B0BDE8F081566906B1B708B5
:105A0000D2F808C0BCF1000F0DD0D5685C2D18D3BA
:105A100012693AB136B18DE806103A46214601F0D6
:105A2000B4FD03900DE0D6685EB912694AB903AAC5
:105A3000CDE90012BAB2214601F07AFD012800D06A
:105A400003950398D6E700002DE9F05F064601466E
:105A50002DED028B93A0FEF701FA3046FAF796FC83
:105A60004FF0010A00273046FAF790FC02287CD15B
:105A700030788F4D8F4C4FF002094FF0030B4428C4
:105A800031D1791E2869FFF71BFF72788A48302AC6
:105A900009D08A49DFF82882312A0AD0322A26D052
:105AA000332A12D12EE02F700770FEF735FB85A048
:105AB00009E085F800A080F800A00F70FBF71EFE3B
:105AC000C8F8000087A0FFF7FFF82869FFF755FF27
:105AD0004FF0FF316869FFF7F3FE84F834702770E8
